{
  "contractName": "Consentement",
  "abi": [
    {
      "inputs": [],
      "stateMutability": "nonpayable",
      "type": "constructor"
    },
    {
      "anonymous": false,
      "inputs": [
        {
          "components": [
            {
              "internalType": "string",
              "name": "Nom",
              "type": "string"
            },
            {
              "internalType": "string",
              "name": "Prenom",
              "type": "string"
            },
            {
              "internalType": "string",
              "name": "mailAdresse",
              "type": "string"
            },
            {
              "internalType": "bool",
              "name": "answere",
              "type": "bool"
            }
          ],
          "indexed": false,
          "internalType": "struct Consentement.UserInfo",
          "name": "person",
          "type": "tuple"
        }
      ],
      "name": "Return",
      "type": "event"
    },
    {
      "inputs": [
        {
          "internalType": "uint256",
          "name": "id",
          "type": "uint256"
        },
        {
          "internalType": "string",
          "name": "nom",
          "type": "string"
        },
        {
          "internalType": "string",
          "name": "prenom",
          "type": "string"
        },
        {
          "internalType": "string",
          "name": "mailAdresse",
          "type": "string"
        },
        {
          "internalType": "bool",
          "name": "answere",
          "type": "bool"
        }
      ],
      "name": "SetUserInfo",
      "outputs": [],
      "stateMutability": "nonpayable",
      "type": "function"
    },
    {
      "inputs": [
        {
          "internalType": "uint256",
          "name": "id",
          "type": "uint256"
        }
      ],
      "name": "getUserInfo",
      "outputs": [
        {
          "components": [
            {
              "internalType": "string",
              "name": "Nom",
              "type": "string"
            },
            {
              "internalType": "string",
              "name": "Prenom",
              "type": "string"
            },
            {
              "internalType": "string",
              "name": "mailAdresse",
              "type": "string"
            },
            {
              "internalType": "bool",
              "name": "answere",
              "type": "bool"
            }
          ],
          "internalType": "struct Consentement.UserInfo",
          "name": "",
          "type": "tuple"
        }
      ],
      "stateMutability": "nonpayable",
      "type": "function"
    }
  ],
  "bytecode": "0x608060405234801561001057600080fd5b50336000806101000a81548173ffffffffffffffffffffffffffffffffffffffff021916908373ffffffffffffffffffffffffffffffffffffffff160217905550610b4e806100606000396000f3fe608060405234801561001057600080fd5b50600436106100365760003560e01c8063754026391461003b578063d379dadf14610057575b600080fd5b610055600480360381019061005091906106ae565b610087565b005b610071600480360381019061006c919061077d565b6101d2565b60405161007e91906108b2565b60405180910390f35b60008054906101000a900473ffffffffffffffffffffffffffffffffffffffff1673ffffffffffffffffffffffffffffffffffffffff163373ffffffffffffffffffffffffffffffffffffffff1614610115576040517f08c379a000000000000000000000000000000000000000000000000000000000815260040161010c90610931565b60405180910390fd5b6000604051806080016040528086815260200185815260200184815260200183151581525090508060016000888152602001908152602001600020600082015181600001908051906020019061016c929190610419565b506020820151816001019080519060200190610189929190610419565b5060408201518160020190805190602001906101a6929190610419565b5060608201518160030160006101000a81548160ff021916908315150217905550905050505050505050565b6101da61049f565b7f0b02e91245358f23b137b9ca5b55949a9b32a81a29a790c49c34809d121e67366001600084815260200190815260200160002060405161021b9190610af6565b60405180910390a16001600083815260200190815260200160002060405180608001604052908160008201805461025190610980565b80601f016020809104026020016040519081016040528092919081815260200182805461027d90610980565b80156102ca5780601f1061029f576101008083540402835291602001916102ca565b820191906000526020600020905b8154815290600101906020018083116102ad57829003601f168201915b505050505081526020016001820180546102e390610980565b80601f016020809104026020016040519081016040528092919081815260200182805461030f90610980565b801561035c5780601f106103315761010080835404028352916020019161035c565b820191906000526020600020905b81548152906001019060200180831161033f57829003601f168201915b5050505050815260200160028201805461037590610980565b80601f01602080910402602001604051908101604052809291908181526020018280546103a190610980565b80156103ee5780601f106103c3576101008083540402835291602001916103ee565b820191906000526020600020905b8154815290600101906020018083116103d157829003601f168201915b505050505081526020016003820160009054906101000a900460ff1615151515815250509050919050565b82805461042590610980565b90600052602060002090601f016020900481019282610447576000855561048e565b82601f1061046057805160ff191683800117855561048e565b8280016001018555821561048e579182015b8281111561048d578251825591602001919060010190610472565b5b50905061049b91906104c9565b5090565b60405180608001604052806060815260200160608152602001606081526020016000151581525090565b5b808211156104e25760008160009055506001016104ca565b5090565b6000604051905090565b600080fd5b600080fd5b6000819050919050565b61050d816104fa565b811461051857600080fd5b50565b60008135905061052a81610504565b92915050565b600080fd5b600080fd5b6000601f19601f8301169050919050565b7f4e487b7100000000000000000000000000000000000000000000000000000000600052604160045260246000fd5b6105838261053a565b810181811067ffffffffffffffff821117156105a2576105a161054b565b5b80604052505050565b60006105b56104e6565b90506105c1828261057a565b919050565b600067ffffffffffffffff8211156105e1576105e061054b565b5b6105ea8261053a565b9050602081019050919050565b82818337600083830152505050565b6000610619610614846105c6565b6105ab565b90508281526020810184848401111561063557610634610535565b5b6106408482856105f7565b509392505050565b600082601f83011261065d5761065c610530565b5b813561066d848260208601610606565b91505092915050565b60008115159050919050565b61068b81610676565b811461069657600080fd5b50565b6000813590506106a881610682565b92915050565b600080600080600060a086880312156106ca576106c96104f0565b5b60006106d88882890161051b565b955050602086013567ffffffffffffffff8111156106f9576106f86104f5565b5b61070588828901610648565b945050604086013567ffffffffffffffff811115610726576107256104f5565b5b61073288828901610648565b935050606086013567ffffffffffffffff811115610753576107526104f5565b5b61075f88828901610648565b925050608061077088828901610699565b9150509295509295909350565b600060208284031215610793576107926104f0565b5b60006107a18482850161051b565b91505092915050565b600081519050919050565b600082825260208201905092915050565b60005b838110156107e45780820151818401526020810190506107c9565b838111156107f3576000848401525b50505050565b6000610804826107aa565b61080e81856107b5565b935061081e8185602086016107c6565b6108278161053a565b840191505092915050565b61083b81610676565b82525050565b6000608083016000830151848203600086015261085e82826107f9565b9150506020830151848203602086015261087882826107f9565b9150506040830151848203604086015261089282826107f9565b91505060608301516108a76060860182610832565b508091505092915050565b600060208201905081810360008301526108cc8184610841565b905092915050565b600082825260208201905092915050565b7f4e6f74204f776e65720000000000000000000000000000000000000000000000600082015250565b600061091b6009836108d4565b9150610926826108e5565b602082019050919050565b6000602082019050818103600083015261094a8161090e565b9050919050565b7f4e487b7100000000000000000000000000000000000000000000000000000000600052602260045260246000fd5b6000600282049050600182168061099857607f821691505b602082108114156109ac576109ab610951565b5b50919050565b60008190508160005260206000209050919050565b600081546109d481610980565b6109de81866107b5565b945060018216600081146109f95760018114610a0b57610a3e565b60ff1983168652602086019350610a3e565b610a14856109b2565b60005b83811015610a3657815481890152600182019150602081019050610a17565b808801955050505b50505092915050565b60008160001c9050919050565b600060ff82169050919050565b6000610a74610a6f83610a47565b610a54565b9050919050565b60006080830160008084018583036000870152610a9883826109c7565b925050600184018583036020870152610ab183826109c7565b925050600284018583036040870152610aca83826109c7565b92505060038401549050610add81610a61565b610aea6060870182610832565b50819250505092915050565b60006020820190508181036000830152610b108184610a7b565b90509291505056fea264697066735822122064b2e120eb885dcef36a88bedc56e998aaef300455bec90eae468c6174e8d8c264736f6c634300080c0033",
  "immutableReferences": {},
  "source": "// SPDX-License-Identifier: MIT\npragma solidity ^0.8.0;\n\ncontract Consentement {\n    address owner;\n    struct UserInfo{\n        string Nom;\n        string Prenom;\n        string mailAdresse;\n        bool answere;\n    }\n\n    event Return (UserInfo person);\n    mapping(uint256 => UserInfo) AllUsers;\n\n    //constructor sets the creator of the contract to the owner variable\n    constructor() {\n      owner = msg.sender;\n    }\n    \n    //modifier checks that the caller of the function is the owner\n    modifier onlyOwner() {\n         require(msg.sender == owner, \"Not Owner\");\n         _;\n    }\n\n    //Set a new person on the blockchain\n    function SetUserInfo(uint256 id, string memory nom, string memory prenom, string memory mailAdresse, bool answere) public onlyOwner{\n        UserInfo memory person = UserInfo(nom, prenom, mailAdresse, answere);\n        AllUsers[id] = person;\n    }\n\n    //Get a new person on the blockchain\n    function getUserInfo(uint256 id) public returns (UserInfo memory){\n        emit Return (AllUsers[id]);\n        return AllUsers[id];\n    }\n}\n",
  "sourcePath": "/Users/robinlecaignec/Desktop/Blockchain/Blockchain-IOT/contracts/Consentement.sol",
  "compiler": {
    "name": "solc",
    "version": "0.8.12+commit.f00d7308.Emscripten.clang"
  },
  "schemaVersion": "3.4.5",
  "updatedAt": "2022-03-10T22:02:53.384Z",
  "devdoc": {
    "kind": "dev",
    "methods": {},
    "version": 1
  },
  "userdoc": {
    "kind": "user",
    "methods": {},
    "version": 1
  }
}